:020000040000FA
:040000006FEF3AF074
:1070F4000100000083500F0B1200808400F0809484
:107104001200020E3EEC3AF01200010E3EEC3AF090
:10711400800E3EEC3AF0120001C027F002C028F0C5
:10712400296A2A6A1200026E83CF01F0F00E01165A
:1071340002500F0B0110836E120001500302F3CFB3
:1071440005F0F4CF06F001500402F3500626025075
:107154000302F350062605C001F006C002F0120037
:10716400026E02C001F001460146C2500118C30B71
:107174000118C26EC282C2B2C2EF38F0C4EF38F056
:10718400BDEF38F0C4501200A0EC3AF0280E3EECEB
:107194003AF00F0E3EEC3AF0010E3EEC3AF0060ED9
:1071A4003EEC3AF0800E3EEC3AF00FEC3AF012006E
:1071B400036E0BEC39F0000E956E808080920338DC
:1071C4000F0B95EC38F07FEC38F0035095EC38F069
:1071D4007FEC38F00F0E956E0BEC39F01200000EB8
:1071E400956E000E7F6E9368000E7E6E000E926E9A
:1071F400CD80CECF01F0CFCF02F08EEC38F07E8E72
:10720400C280000EC16EC09EC70EC016F80EC01616
:10721400120080908082808400F07CEC38F0016E53
:107224000138F00B026E8094808400F07CEC38F01E
:107234000212809402BE21EF39F023EF39F00DEFF2
:1072440039F0809202507F0B1200000E096E35EF68
:1072540039F009500724D96E000E0820DA6EDF5089
:1072640064EC39F0092A09500724D96E000E08206D
:10727400DA6EDF50D8A441EF39F043EF39F02BEF49
:1072840039F012000804040A111F110004041B043D
:10729400041B0404000E1F1F1F1F0E000000150E08
:1072A4001B0E150008041F101E101F00040A0E11E7
:1072B4001F100E0008040E010F110F00040A0E0126
:1072C4000F110F00046E0450DAEC38F0056E7AEFFB
:1072D40039F0C00E3EEC3AF089EF39F0940E3EECF2
:1072E4003AF089EF39F0D40E3EEC3AF089EF39F0F8
:1072F4000550940AD8B46BEF39F0540AD8B475EF3A
:1073040039F0140AD8B470EF39F089EF39F012006B
:1073140027C001F028C002F029C003F02AC004F0FD
:107324006D0E056E4E0E066EC60E076E410E086E8D
:1073340005EC3BF001C027F002C028F003C029F09F
:1073440004C02AF0390E2726300E2822000E2922E6
:10735400000E2A22FF0E29140D6E7F0E2A140E6EC3
:10736400120087EC38F0000E0B6E000E0A6E0A282D
:10737400046E010ED2EC3AF00AC001F00BC002F028
:10738400000E046E150E036E9FEC38F0600E01249F
:10739400076E000E0220086E27EC39F00A4A0B2A09
:1073A4000BBEDEEF39F00B5009E1040E0A5CD8A0E5
:1073B400DEEF39F0E0EF39F0B9EF39F0120087EC85
:1073C40038F0000E0B6E000E0A6E0A28046E010ED1
:1073D400D2EC3AF00AC001F00BC002F0000E046EC9
:1073E400150E036E9FEC38F0000E0124076E010E9B
:1073F4000220086E27EC39F00A4A0B2A0BBE0CEF68
:107404003AF00B5009E1040E0A5CD8A00CEF3AF0F4
:107414000EEF3AF0E7EF39F01200400E3EEC3AF08E
:10742400000E066E000E076E0650080DB40E046EB4
:10743400000E056EF3500426F45005220750042470
:10744400D96E000E0520DA6EDF50DAEC38F0072A28
:10745400070E076430EF3AF032EF3AF016EF3AF0E5
:10746400062A070E066439EF3AF03BEF3AF014EFC0
:107474003AF083EC38F01200036E0BEC39F0000E96
:10748400956E8090809203380F0B95EC38F07FEC6A
:1074940038F0035095EC38F07FEC38F0030EE82E0A
:1074A400FED700F00304D8B45AEF3AF05CEF3AF098
:1074B40065EF3AF0020E0318D8A463EF3AF065EFD3
:1074C4003AF06AEF3AF0A60EE82EFED700F000F08C
:1074D4000F0E956E0BEC39F01200880EF66E720EDC
:1074E400F76E000EF86E00EEB4F010EE40F00900F6
:1074F400F5CFEEFFE550E150FAE1F40EF66E700EB2
:10750400F76E000EF86E00EE27F010EE04F009009E
:10751400F5CFEEFFE550E150FAE101EE00F0540E34
:10752400EE6AE806FDE100EE60F0540EEE6AE8064D
:10753400FDE1000EF86E00013AEF3BF0000E956E8F
:107544000D0E036EFC0EE82EFED7032EFCD78090A2
:107554008092030E95EC38F07FEC38F0030EE82EA1
:10756400FED700F0030E95EC38F07FEC38F0030EF4
:10757400E82EFED700F0030E95EC38F07FEC38F0DF
:10758400030EE82EFED700F0020E95EC38F07FECE7
:1075940038F0030EE82EFED700F00F0E956E1200A1
:1075A400056EF1EF3AF005507F0F80093EEC3AF09A
:1075B40004EF3BF00550BF0F80093EEC3AF004EFB6
:1075C4003BF00550930F80093EEC3AF004EF3BF09A
:1075D4000550D30F80093EEC3AF004EF3BF0045021
:1075E400010AD8B4D5EF3AF0030AD8B4DCEF3AF084
:1075F400010AD8B4E3EF3AF0070AD8B4EAEF3AF054
:1076040004EF3BF01200000E096E000E0A6E000E2D
:107614000B6E000E0C6E01A012EF3BF014EF3BF06A
:107624001CEF3BF00550092606500A2207500B2296
:1076340008500C22D8900536063607360836D890FE
:1076440004320332023201320150021003100410DA
:10765400D8A42FEF3BF031EF3BF00DEF3BF009C026
:1076640001F00AC002F00BC003F00CC004F01200D9
:10767400010E256E010E266E000E246E040E236E7E
:10768400F1EC38F0C6EC38F087EC38F083EC38F0E5
:10769400D9EC3BF023C015F024C016F0E5EC3DF026
:1076A400EAEC3CF0E1EC39F0250E066E000E076EB4
:1076B400260E086E000E096E21EC3FF0210E226E9C
:1076C400760EE82EFED7222EFCD700F000F081B211
:1076D4006EEF3BF070EF3BF075EF3BF026C00DF022
:1076E400255059EC3DF0230E076E000E086E86EC13
:1076F4003CF00009D8B481EF3BF083EF3BF056EF48
:107704003BF0B3EC39F056EF3BF000EF00F0066EBF
:10771400000E086E09680A680B680C680650092494
:10772400076E01500B24086E0850150D600E026E92
:10773400000E036EF3500226F45003220750022475
:10774400D96E000E0320DA6E0850150D000E046E7B
:10775400010E056EF3500426F4500522075004244C
:10776400E16E000E0520E26EDFCFE7FF0B4A0C2A24
:107774000CBEC6EF3BF00C5009E1020E0B5CD8A026
:10778400C6EF3BF0C8EF3BF090EF3BF0094A0A2A02
:107794000ABED6EF3BF00A5009E1020E095CD8A0FC
:1077A400D6EF3BF0D8EF3BF08EEF3BF01200000E2B
:1077B4000C6E000E0B6E000E0A6E000E096E0BC0EE
:1077C40001F00CC002F0000E046E150E036E9FEC67
:1077D40038F0000E076E010E086E015007260250A5
:1077E400082209500724D96E0A500820DA6E020EC6
:1077F400DF6E094A0A2A0ABE09EF3CF00A5009E181
:10780400140E095CD8A009EF3CF00BEF3CF0E1EF5B
:107814003BF00BC001F00CC002F0000E046E150E1C
:10782400036E9FEC38F0140E0124D96E010E022071
:10783400DA6E000EDF6E0B4A0C2A0CBE2BEF3CF006
:107844000C5009E1040E0B5CD8A02BEF3CF02DEF9B
:107854003CF0DDEF3BF01200000E146E10BE37EF6B
:107864003CF035EF3CF03DEF3CF00F6C101ED8B00F
:10787400102A010E146E12BE44EF3CF042EF3CF0AD
:1078840048EF3CF0116C121ED8B0122A115012109D
:10789400D8B44FEF3CF051EF3CF075EF3CF0010EE3
:1078A400136E59EF3CF0D89011361236132A12AEEB
:1078B4005EEF3CF060EF3CF055EF3CF011500F5C94
:1078C40012501058D8A069EF3CF06BEF3CF06FEF0A
:1078D4003CF011500F5E1250105AD89012321132EF
:1078E400132E60EF3CF01450D8B47BEF3CF07DEFE6
:1078F4003CF081EF3CF00F6C101ED8B0102A0FC082
:107904000FF010C010F01200000E0D6E000E0F6E7E
:10791400000E0E6E000E116E000E106E0EC001F001
:107924000FC002F0000E046E150E036E9FEC38F0CB
:10793400000E096E010E0A6E0150092602500A2239
:1079440010500924D96E11500A20DA6E020EDE1886
:10795400D8A4AFEF3CF0B1EF3CF0B2EF3CF00D2A0D
:10796400104A112A11BEC0EF3CF0115009E1140E67
:10797400105CD8A0C0EF3CF0C2EF3CF090EF3CF0BC
:107984000E4A0F2A0FBED0EF3CF00F5009E1040E4F
:107994000E5CD8A0D0EF3CF0D2EF3CF08CEF3CF082
:1079A40007C0D9FF08C0DAFF0D500B6E0C6ADE5019
:1079B4000B1807E1DE500C18D8A4E3EF3CF0E5EF18
:1079C4003CF0E8EF3CF0010EE9EF3CF0000E120051
:1079D400000E1B6E000E1A6E000E1D6E000E1C6E45
:1079E4001CC001F01DC002F0000E046E150E036EE3
:1079F4009FEC38F0600E176E000E186E01501726BB
:107A0400025018221A501724D96E1B501820DA6E0F
:107A1400030EDE18D8B411EF3DF013EF3DF038EF4C
:107A24003DF01CC007F01DC008F01AC009F01BC0CF
:107A34000AF07FEC3EF0176E1CC001F01DC002F08E
:107A4400000E046E150E036E9FEC38F0600E186E77
:107A5400000E196E01501826025019221A501824CB
:107A6400D96E1B501920DA6E17C0DFFF1C4A1D2A7D
:107A74001DBE46EF3DF01D5009E1040E1C5CD8A06C
:107A840046EF3DF048EF3DF0F2EF3CF01A4A1B2A76
:107A94001BBE56EF3DF01B5009E1140E1A5CD8A032
:107AA40056EF3DF058EF3DF0EEEF3CF01200126E51
:107AB40081A25FEF3DF061EF3DF05AEF3DF0120619
:107AC4000D060D50150D600E0E6E000E0F6EF35068
:107AD4000E26F4500F2212500E24D96E000E0F20E1
:107AE400DA6E030EDE18D8A47AEF3DF07CEF3DF099
:107AF40083EF3DF00D28046E1228D2EC3AF0E4EF47
:107B04003DF00D50150D600E0E6E000E0F6EF3500D
:107B14000E26F4500F2212500E24D96E000E0F20A0
:107B2400DA6E200EDE18D8A49AEF3DF09CEF3DF0FB
:107B3400A3EF3DF00DC001F0125089EC3BF0DDEFF6
:107B44003DF00D50150D600E0E6E000E0F6EF350CD
:107B54000E26F4500F2212500E24D96E000E0F2060
:107B6400DA6E2F0EDF64B9EF3DF0BBEF3DF0DDEFD1
:107B74003DF00D50150D600E0E6E000E0F6EF3509D
:107B84000E26F4500F2212500E24D96E000E0F2030
:107B9400DA6E0D50150D000E106E010E116EF350BD
:107BA4001026F450112212501024E16E000E112000
:107BB400E26EDFCFE7FFE1EC39F00D28046E122806
:107BC400D2EC3AF01200000E1D6E000E1F6E000E75
:107BD4001E6E000E216E000E206E20C001F021C02A
:107BE40002F0000E046E150E036E9FEC38F0600E6A
:107BF400176E000E186E01501726025018221E50E0
:107C04001724D96E1F501820DA6E200EDF6E204A1A
:107C1400212A21BE17EF3EF0215009E1040E205C19
:107C2400D8A017EF3EF019EF3EF0EFEF3DF01E4AFB
:107C34001F2A1FBE27EF3EF01F5009E1140E1E5CE1
:107C4400D8A027EF3EF029EF3EF0EBEF3DF0000E19
:107C54001B6E000E1A6E6FEF3EF08AEC39F00DC009
:107C64000FF00EC010F0000E126E140E116E2EECFA
:107C74003CF00F501C6E8AEC39F00D50030B1D6E56
:107C84001D50150D600E176E000E186EF35017265A
:107C9400F45018221C501724D96E000E1820DA6EE6
:107CA400200EDE18D8A459EF3EF05BEF3EF02FEF24
:107CB4003EF01D50150D600E176E000E186EF35039
:107CC4001726F45018221C501724D96E000E1820C1
:107CD400DA6E030EDF6E1A4A1B2A15501A5C1B500B
:107CE400800A176E1650800A1758D8A07CEF3EF011
:107CF4007EEF3EF02FEF3EF01200000E126E000EEB
:107D0400116E000E0E6E136814681568166815500F
:107D14001610D8A490EF3EF092EF3EF09BEF3EF0A9
:107D240013501410D8B499EF3EF09BEF3EF0F3EFEC
:107D34003EF0135009240F6E14500A20106E155093
:107D44000724116E16500820126E10BEACEF3EF0E0
:107D5400AEEF3EF0F3EF3EF010BEBCEF3EF010503D
:107D640007E1140E0F5CD8B0BAEF3EF0BCEF3EF062
:107D7400F3EF3EF012BEC1EF3EF0C3EF3EF0F3EF7F
:107D84003EF012BED1EF3EF0125007E1040E115C3A
:107D9400D8B0CFEF3EF0D1EF3EF0F3EF3EF011C09C
:107DA40001F012C002F0000E046E150E036E9FEC7B
:107DB40038F0600E0B6E000E0C6E01500B26025054
:107DC4000C220F500B24D96E10500C20DA6E030EC7
:107DD400DE18D8A4F0EF3EF0F2EF3EF0F3EF3EF001
:107DE4000E2A154A162A16BE01EF3FF0165009E175
:107DF400020E155CD8A001EF3FF003EF3FF089EFCE
:107E04003EF0134A142A14BE11EF3FF0145009E156
:107E1400020E135CD8A011EF3FF013EF3FF087EF91
:107E24003EF00E50D8A419EF3FF01BEF3FF01EEFC9
:107E34003FF0200E20EF3FF00E50300F1200070EDF
:107E4400B2EC38F00A6E0A500B6E0C6A060EB2ECF5
:107E540038F00A6E0A500D6E0E6A0CBE3DEF3FF00C
:107E64000C5007E1640E0B5CD8B03BEF3FF03DEFE4
:107E74003FF063EF3FF006C0D9FF07C0DAFFDF062B
:107E840006C0D9FF07C0DAFFDF50D8A44CEF3FF09B
:107E94004EEF3FF054EF3FF006C0D9FF07C0DAFFC2
:107EA400140EDF6E08C0D9FF09C0DAFFDF50046E7C
:107EB40006C0D9FF07C0DAFFDF50D2EC3AF0FFEF7B
:107EC4003FF00CBE6FEF3FF00C5009E1970E0B5CD6
:107ED400D8A06FEF3FF071EF3FF097EF3FF006C08F
:107EE400D9FF07C0DAFFDF2A06C0D9FF07C0DAFFCF
:107EF400140EDF6480EF3FF082EF3FF088EF3FF035
:107F040006C0D9FF07C0DAFF010EDF6E08C0D9FF33
:107F140009C0DAFFDF50046E06C0D9FF07C0DAFFDC
:107F2400DF50D2EC3AF0FFEF3FF00EBEA5EF3FF08A
:107F34000E5007E1640E0D5CD8B0A3EF3FF0A5EF3F
:107F44003FF0CBEF3FF008C0D9FF09C0DAFFDF2ACA
:107F540008C0D9FF09C0DAFF040EDF64B4EF3FF0B4
:107F6400B6EF3FF0BCEF3FF008C0D9FF09C0DAFF1D
:107F7400010EDF6E08C0D9FF09C0DAFFDF50046EBE
:107F840006C0D9FF07C0DAFFDF50D2EC3AF0FFEFAA
:107F94003FF00EBED7EF3FF00E5009E1970E0D5C97
:107FA400D8A0D7EF3FF0D9EF3FF0FFEF3FF008C084
:107FB400D9FF09C0DAFFDF0608C0D9FF09C0DAFF1C
:107FC400DF50D8A4E8EF3FF0EAEF3FF0F0EF3FF0E6
:107FD40008C0D9FF09C0DAFF040EDF6E08C0D9FF5C
:107FE40009C0DAFFDF50046E06C0D9FF07C0DAFF0C
:0C7FF400DF50D2EC3AF0FFEF3FF012003B
:020000040020DA
:08000000FFFFFFFFFFFFFFFF00
:020000040030CA
:0E000000FF081F1EFF8B81FF0FC00FE00F4097
:00000001FF
